:0400000508000041AE
:020000040800F2
:10000000C0020020550000085900000859000008EF
:10001000000000000000000000020000FC010000E1
:100020001BA9264C00000008000000005900000831
:1000300000000000000000005900000859000008FE
:100040000348854600F00CF80048004731010008DD
:10005000C002002001480047FEE700004100000800
:10006000064C0125064E05E0E36807CC2B430C3C0B
:1000700098471034B442F7D3FFF7E6FFEC010008CD
:10008000FC01000830B5194C206800282AD02068EF
:10009000401C27D06068002824D06068401C21D014
:1000A000E3691349D81FFF38FA3888421AD2114D34
:1000B000B7202860002001190968A960001D1C28CC
:1000C000F9D30020A860A860242205E01019006878
:1000D000A86000F021F8121D9A42F7D3A868216A9F
:1000E000814201D0012030BD002030BD0002000857
:1000F000017C000000300240704702E008C8121F77
:1001000008C1002AFAD170477047002001E001C100
:10011000121F002AFBD170470348C168890701D428
:10012000024901607047000000300040AAAA0000A8
:10013000254CA06825490843A0602069012630436A
:1001400020612069B0432061606A2149214D8842C5
:1001500003D0FFF797FF002822D0002060621E48DE
:10016000026B09218A43026382688A438260426883
:100170008A4342600268C3218A4382320260C268B5
:100180008A43C260016A154A1140154A8918016202
:100190002E601449086880F3088848688047FEE7A5
:1001A000114B00221C05D018006811190860FFF7D8
:1001B000B3FF121DC02AF6DB03202860186880F305
:1001C000088858688047FEE740100240410200005E
:1001D000EB9C374A00000140000C0048F00FFFFF85
:1001E0000330000000E0FF1F00020008FC010008CF
:0C01F000C0000020000200000A0100080E
:00000001FF
